{
  "_format": "hh-sol-artifact-1",
  "contractName": "CropTraceability",
  "sourceName": "contracts/CropTraceability.sol",
  "abi": [
    {
      "anonymous": false,
      "inputs": [
        {
          "indexed": true,
          "internalType": "uint256",
          "name": "cropId",
          "type": "uint256"
        },
        {
          "indexed": false,
          "internalType": "string",
          "name": "dataHash",
          "type": "string"
        },
        {
          "indexed": false,
          "internalType": "uint256",
          "name": "timestamp",
          "type": "uint256"
        }
      ],
      "name": "CropRegistered",
      "type": "event"
    },
    {
      "inputs": [
        {
          "internalType": "uint256",
          "name": "_cropId",
          "type": "uint256"
        }
      ],
      "name": "cropExists",
      "outputs": [
        {
          "internalType": "bool",
          "name": "",
          "type": "bool"
        }
      ],
      "stateMutability": "view",
      "type": "function"
    },
    {
      "inputs": [
        {
          "internalType": "uint256",
          "name": "",
          "type": "uint256"
        }
      ],
      "name": "crops",
      "outputs": [
        {
          "internalType": "uint256",
          "name": "cropId",
          "type": "uint256"
        },
        {
          "internalType": "string",
          "name": "dataHash",
          "type": "string"
        },
        {
          "internalType": "uint256",
          "name": "timestamp",
          "type": "uint256"
        },
        {
          "internalType": "bool",
          "name": "exists",
          "type": "bool"
        }
      ],
      "stateMutability": "view",
      "type": "function"
    },
    {
      "inputs": [
        {
          "internalType": "uint256",
          "name": "_cropId",
          "type": "uint256"
        }
      ],
      "name": "getCropHash",
      "outputs": [
        {
          "internalType": "string",
          "name": "dataHash",
          "type": "string"
        },
        {
          "internalType": "uint256",
          "name": "timestamp",
          "type": "uint256"
        }
      ],
      "stateMutability": "view",
      "type": "function"
    },
    {
      "inputs": [
        {
          "internalType": "uint256",
          "name": "_cropId",
          "type": "uint256"
        },
        {
          "internalType": "string",
          "name": "_dataHash",
          "type": "string"
        }
      ],
      "name": "registerCrop",
      "outputs": [
        {
          "internalType": "bool",
          "name": "",
          "type": "bool"
        }
      ],
      "stateMutability": "nonpayable",
      "type": "function"
    }
  ],
  "bytecode": "0x608060405234801561001057600080fd5b506109a3806100206000396000f3fe608060405234801561001057600080fd5b506004361061004c5760003560e01c806370c9f1a51461005157806373fffff414610084578063ebcf31ca146100b4578063f95cafa5146100e4575b600080fd5b61006b600480360381019061006691906105b5565b610115565b60405161007b9493929190610794565b60405180910390f35b61009e600480360381019061009991906105b5565b6101da565b6040516100ab9190610709565b60405180910390f35b6100ce60048036038101906100c991906105de565b610206565b6040516100db9190610709565b60405180910390f35b6100fe60048036038101906100f991906105b5565b610339565b60405161010c929190610724565b60405180910390f35b600060205280600052604060002060009150905080600001549080600101805461013e906108b5565b80601f016020809104026020016040519081016040528092919081815260200182805461016a906108b5565b80156101b75780601f1061018c576101008083540402835291602001916101b7565b820191906000526020600020905b81548152906001019060200180831161019a57829003601f168201915b5050505050908060020154908060030160009054906101000a900460ff16905084565b600080600083815260200190815260200160002060030160009054906101000a900460ff169050919050565b600080600084815260200190815260200160002060030160009054906101000a900460ff161561026b576040517f08c379a000000000000000000000000000000000000000000000000000000000815260040161026290610774565b60405180910390fd5b6040518060800160405280848152602001838152602001428152602001600115158152506000808581526020019081526020016000206000820151816000015560208201518160010190805190602001906102c7929190610495565b506040820151816002015560608201518160030160006101000a81548160ff021916908315150217905550905050827fe7d02b114e2bb822382f038e9ff6fa29e700a03512662c3ac7f02463ffe616308342604051610327929190610724565b60405180910390a26001905092915050565b6060600080600084815260200190815260200160002060030160009054906101000a900460ff1661039f576040517f08c379a000000000000000000000000000000000000000000000000000000000815260040161039690610754565b60405180910390fd5b6000806000858152602001908152602001600020604051806080016040529081600082015481526020016001820180546103d8906108b5565b80601f0160208091040260200160405190810160405280929190818152602001828054610404906108b5565b80156104515780601f1061042657610100808354040283529160200191610451565b820191906000526020600020905b81548152906001019060200180831161043457829003601f168201915b50505050508152602001600282015481526020016003820160009054906101000a900460ff1615151515815250509050806020015181604001519250925050915091565b8280546104a1906108b5565b90600052602060002090601f0160209004810192826104c3576000855561050a565b82601f106104dc57805160ff191683800117855561050a565b8280016001018555821561050a579182015b828111156105095782518255916020019190600101906104ee565b5b509050610517919061051b565b5090565b5b8082111561053457600081600090555060010161051c565b5090565b600061054b61054684610811565b6107e0565b90508281526020810184848401111561056357600080fd5b61056e848285610873565b509392505050565b600082601f83011261058757600080fd5b8135610597848260208601610538565b91505092915050565b6000813590506105af81610956565b92915050565b6000602082840312156105c757600080fd5b60006105d5848285016105a0565b91505092915050565b600080604083850312156105f157600080fd5b60006105ff858286016105a0565b925050602083013567ffffffffffffffff81111561061c57600080fd5b61062885828601610576565b9150509250929050565b61063b8161085d565b82525050565b600061064c82610841565b610656818561084c565b9350610666818560208601610882565b61066f81610945565b840191505092915050565b6000610687600e8361084c565b91507f43726f70206e6f7420666f756e640000000000000000000000000000000000006000830152602082019050919050565b60006106c760178361084c565b91507f43726f7020616c726561647920726567697374657265640000000000000000006000830152602082019050919050565b61070381610869565b82525050565b600060208201905061071e6000830184610632565b92915050565b6000604082019050818103600083015261073e8185610641565b905061074d60208301846106fa565b9392505050565b6000602082019050818103600083015261076d8161067a565b9050919050565b6000602082019050818103600083015261078d816106ba565b9050919050565b60006080820190506107a960008301876106fa565b81810360208301526107bb8186610641565b90506107ca60408301856106fa565b6107d76060830184610632565b95945050505050565b6000604051905081810181811067ffffffffffffffff8211171561080757610806610916565b5b8060405250919050565b600067ffffffffffffffff82111561082c5761082b610916565b5b601f19601f8301169050602081019050919050565b600081519050919050565b600082825260208201905092915050565b60008115159050919050565b6000819050919050565b82818337600083830152505050565b60005b838110156108a0578082015181840152602081019050610885565b838111156108af576000848401525b50505050565b600060028204905060018216806108cd57607f821691505b602082108114156108e1576108e06108e7565b5b50919050565b7f4e487b7100000000000000000000000000000000000000000000000000000000600052602260045260246000fd5b7f4e487b7100000000000000000000000000000000000000000000000000000000600052604160045260246000fd5b6000601f19601f8301169050919050565b61095f81610869565b811461096a57600080fd5b5056fea2646970667358221220540a8e44a607e62c8cf34b44b19ef4c01bf2cfb7478281c715f5b36f64586ffa64736f6c63430008000033",
  "linkReferences": {},
  "deployedLinkReferences": {}
}